:100000000C945D000C9485000C9485000C94850084
:100010000C9485000C9485000C9485000C9485004C
:100020000C9485000C9485000C9485000C942E048F
:100030000C9485000C9485000C9485000C9485002C
:100040000C94B6020C9485000C9485000C948500E9
:100050000C9485000C9485000C9485000C94BC04D1
:100060000C9400030C94850000000000240027007D
:100070002A0000000000250028002B0004040404CE
:100080000404040402020202020203030303030342
:10009000010204081020408001020408102001021F
:1000A00004081020000000080002010000030407FB
:1000B0000000000000000000380A11241FBECFEF2E
:1000C000D8E0DEBFCDBF11E0A0E0B1E0EAE1F9E1A8
:1000D00002C005900D92A231B107D9F721E0A2E14B
:1000E000B1E001C01D92A33FB207E1F710E0CDE5FA
:1000F000D0E004C02197FE010E94800CCC35D107CE
:10010000C9F70E9402050C948B0C0C940000FC01B2
:1001100020813091200191818281321313C030916E
:100120001F0139130FC030911E0138130BC04091CD
:100130001C0150911D014F5F5F4F50931D01409373
:100140001C0104C010921D0110921C0140911C0161
:1001500050911D014230510594F02093CF019093AE
:10016000CB018093CD0121110AC0911108C08111EA
:1001700006C01092CE011092DD011092DC01209396
:10018000200190931F0180931E018091EF019091B7
:10019000F001A091F101B091F2018093EB019093F5
:1001A000EC01A093ED01B093EE01838180931B01DC
:1001B000848180931A010895CF92DF92EF92FF928B
:1001C0000F931F93CF93DF936C017A018B01C0E0F3
:1001D000D0E0CE15DF0589F0D8016D918D01D601F3
:1001E000ED91FC910190F081E02DC6010995892BDC
:1001F00011F47E0102C02196ECCFC701DF91CF91AF
:100200001F910F91FF90EF90DF90CF90089590E0B5
:10021000FC01EC55FF4F3491FC01E057FF4F249156
:10022000FC01E458FF4FE491EE2309F43BC0332373
:1002300039F1333091F038F43130A9F0323001F532
:1002400084B58F7D12C0373091F03830A1F0343052
:10025000B9F4809180008F7D03C0809180008F77FA
:10026000809380000DC084B58F7784BD09C08091D4
:10027000B0008F7703C08091B0008F7D8093B00075
:10028000F0E0EE0FFF1FEE58FF4FA591B4918FB72E
:10029000F894EC91611103C020952E2301C02E2B00
:1002A0002C938FBF0895CF93DF9390E0FC01E0572C
:1002B000FF4F2491FC01E458FF4F8491882361F1A2
:1002C00090E0880F991FFC01E859FF4FC591D49128
:1002D000FC01EE58FF4FA591B491611109C09FB781
:1002E000F8948881209582238883EC912E230BC07B
:1002F000623061F49FB7F8943881822F8095832310
:100300008883EC912E2B2C939FBF06C08FB7F89457
:10031000E8812E2B28838FBFDF91CF9108951F9303
:10032000CF93DF93182FEB0161E00E9453012097D8
:1003300011F460E004C0CF3FD10539F461E0812FB2
:10034000DF91CF911F910C940701E12FF0E0EC5564
:10035000FF4FE491E330F9F048F4E130B9F0E230D6
:10036000A1F584B5806284BDC8BD34C0E730E9F032
:10037000E83019F1E43049F5809180008062809383
:100380008000D0938B00C0938A0024C084B580681D
:1003900084BDC7BD1FC080918000806880938000AD
:1003A000D0938900C093880015C08091B000806808
:1003B0008093B000C093B3000DC08091B000806204
:1003C0008093B000C093B40005C0C038D1050CF0D4
:1003D000B5CFAFCFDF91CF911F9108953FB7F8947C
:1003E0008091A1019091A201A091A301B091A401DB
:1003F00026B5A89B05C02F3F19F00196A11DB11D80
:100400003FBFBA2FA92F982F8827820F911DA11DBA
:10041000B11DBC01CD0142E0660F771F881F991FF7
:100420004A95D1F708958F929F92AF92BF92CF9243
:10043000DF92EF92FF920E94EE014B015C0184EF8C
:10044000C82EDD24D394E12CF12C0E94EE01DC01B6
:10045000CB0188199909AA09BB09883E9340A105D7
:10046000B10558F021E0C21AD108E108F10888EE80
:10047000880E83E0981EA11CB11CC114D104E104B4
:10048000F10419F7FF90EF90DF90CF90BF90AF90FD
:100490009F908F90089585ED8093BC008091BC0063
:1004A00084FDFCCF10927601089540915001262FD3
:1004B00030E0240F311D21323105DCF4209176012A
:1004C0002430C9F4FC0180E090E0861758F43091A4
:1004D00050012191DC01A25DBE4FA30FB11D2C93F1
:1004E0000196F3CF80915001680F6093500180E036
:1004F000089581E0089582E0089508958FEF9FEFB9
:1005000008958FEF9FEF08958091210190E09195DC
:10051000819591090895CF93DF9300D0CDB7DEB7D1
:10052000CB01642F49835A830E9455024981842F4D
:100530005A81952F0F900F90DF91CF910895CF930F
:10054000DF931F92CDB7DEB7698361E0CE010196DC
:100550000E94550281E090E00F90DF91CF910895C5
:10056000089580E090E008950E94860C1F920F92FB
:100570000FB60F9211242F933F938F939F93AF93B6
:10058000BF9380919D0190919E01A0919F01B09198
:10059000A00130919C0123E0230F2D3720F4019618
:1005A000A11DB11D05C026E8230F0296A11DB11D96
:1005B00020939C0180939D0190939E01A0939F01A5
:1005C000B093A0018091A1019091A201A091A301FB
:1005D000B091A4010196A11DB11D8093A10190933A
:1005E000A201A093A301B093A401BF91AF919F91E9
:1005F0008F913F912F910F900FBE0F901F901895E4
:100600001F920F920FB60F9211242F933F934F9387
:100610005F936F937F938F939F93AF93BF93EF936A
:10062000FF938091B900887F803609F49CC068F5FB
:10063000883209F45BC090F4803109F454C038F476
:10064000882309F4F6C0883009F44DC0F6C088311B
:1006500009F44CC0803209F45DC0EFC0803409F465
:1006600068C048F4803309F455C0883309F0E5C008
:1006700080937501D8C0803509F44FC0883509F4DE
:100680005DC0883409F0D9C0D6C0883909F4C7C024
:10069000A8F4883709F467C038F4883609F463C0D1
:1006A000803709F460C0C9C0883809F4B8C08039FF
:1006B00009F45FC0803809F0C0C05BC0803B09F41A
:1006C00086C038F4803A09F466C0883A09F47FC0DD
:1006D000B4C0803C09F4A7C0883C09F4A4C0883B9E
:1006E00009F48AC0AAC080919B0110C090919A0120
:1006F00080919901981770F5E0919A0181E08E0F31
:1007000080939A01F0E0E758FE4F80818093BB0010
:1007100085EC86C0809375018EC0E0919A0181E0DE
:100720008E0F80939A018091BB00F0E0E758FE4F56
:10073000808390919A01809199016EC0E0919A0115
:1007400081E08E0F80939A018091BB00F0E0E75822
:10075000FE4F80838091780181116DC081E080938C
:10076000770184EA61C083E080937601109274017E
:10077000CFCF80917401803208F051C0E0917401B4
:1007800081E08E0F809374018091BB00F0E0EC5A01
:10079000FE4F8083BDCF85EC8093BC001092760124
:1007A00080917401803230F4E0917401F0E0EC5AF1
:1007B000FE4F10826091740170E0E0915201F0915F
:1007C000530184E591E009951092740136C084E0EC
:1007D000809376011092510110925001E0914E01E8
:1007E000F0914F01099580915001811105C081E080
:1007F0008093500110922E01E091510181E08E0F03
:1008000080935101F0E0E25DFE4F80818093BB0058
:100810009091510180915001981708F479CF85E8A3
:100820008093BC000AC085EC8093BC0010927601D6
:1008300004C0109275010E944B02FF91EF91BF918D
:10084000AF919F918F917F916F915F914F913F9168
:100850002F910F900FBE0F901F9018951F920F921F
:100860000FB60F9211242F933F934F935F936F9383
:100870007F938F939F93AF93BF93EF93FF93809159
:100880001901823079F0833029F1813009F063C099
:1008900010921901109285001092840080918100BD
:1008A0008C7F15C083E0809319011092850010920F
:1008B0008400809181008C7F8093810084E090E0AF
:1008C0009093890080938800809181008360809359
:1008D000810041C0809118018F5F8093180184309E
:1008E000D1F590911701E091160181E08E0F809370
:1008F00016010E2E000CFF0BEE5EFE4F908384302F
:1009000034F11092850010928400809181008C7FD8
:10091000809381001092190190911301809112012E
:1009200089279091140189278095807F80931601F3
:1009300090911501891309C0F894E091A501F091F7
:10094000A60182E191E00995789410921601109227
:10095000170110921801FF91EF91BF91AF919F91F4
:100960008F917F916F915F914F913F912F910F9058
:100970000FBE0F901F9018951F920F920FB60F92F7
:1009800011242F938F939F9380911901813001F14E
:10099000833011F181112EC081E0809319011092F2
:1009A000850010928400809181008C7F809381006B
:1009B00082E090E09093890080938800809181008C
:1009C000836080938100109217011092180112C069
:1009D00082E0809319010EC0209118012C5F81E004
:1009E00090E001C0880F2A95EAF790911701890FCE
:1009F000809317019F918F912F910F900FBE0F90B1
:100A00001F901895CF93DF93CDB7DEB72C970FB615
:100A1000F894DEBF0FBECDBF789484B5826084BDEC
:100A200084B5816084BD85B5826085BD85B58160F2
:100A300085BD80916E00816080936E001092810070
:100A4000809181008260809381008091810081602B
:100A500080938100809180008160809380008091EC
:100A6000B10084608093B1008091B0008160809378
:100A7000B00080917A00846080937A0080917A003F
:100A8000826080937A0080917A00816080937A00FE
:100A900080917A00806880937A001092C100109251
:100AA000DD011092DC010E94EE016093DF01709382
:100AB000E0018093E1019093E20160E08AE00E940E
:100AC000530161E084E00E94530161E082E00E94F2
:100AD000530161E083E00E94530161E085E00E94E0
:100AE000530161E081E00E94530161E084E00E94D3
:100AF00053018FB78F778FBF80B7877F80BF80B755
:100B00008F7780BF80B78F7B80BF80917B008F7B8A
:100B100080937B0080B7836080BF80B7886080BF90
:100B20008FB780688FBF87E890E09093A60180938D
:100B3000A501F89410928000109281001092850017
:100B400010928400809181008C7F8093810084E0EA
:100B500090E0909389008093880080918100836069
:100B600080938100809181008860809381008091D2
:100B70006F00826080936F0078948091B100887FCD
:100B800082608093B10060E08EE00E94530161E0DA
:100B900084E00E94070161E082E00E94070161E0B9
:100BA00083E00E94070161E084E00E94070160E0A9
:100BB00070E085E00E948F0160E081E00E94070103
:100BC0005A980E9413025A9A0E9413025A980E943D
:100BD00013025A9A0E94130200E010E092E0292EBC
:100BE000312C0E94EE016093EF017093F00180932D
:100BF000F1019093F201C090EB01D090EC01E090F4
:100C0000ED01F090EE01C092E701D092E801E09290
:100C1000E901F092EA018090DF019090E001A0905C
:100C2000E101B090E2019B01AC01281939094A09A0
:100C30005B0949015A012093E3013093E401409399
:100C4000E5015093E6012091DE01222309F4B4C2AC
:100C5000C616D706E806F90608F0AEC29B01AC013D
:100C60002C193D094E095F0969017A013DEDC31652
:100C700035E0D306E104F10408F49EC22091DC01C2
:100C80003091DD012230310509F496C28092D801FD
:100C90009092D901A092DA01B092DB016093DF015A
:100CA0007093E0018093E1019093E2011092E301DF
:100CB0001092E4011092E5011092E6018091D401B6
:100CC0009091D501A091D601B091D7017501640131
:100CD000C81AD90AEA0AFB0AC092D001D092D101FF
:100CE000E092D201F092D301C501B4010E945C0BE5
:100CF0006D837E838F839887C701B6010E945C0B4A
:100D00002D813E814F8158850E94BB0A20E030E052
:100D100040E05FE30E94130C69837A838B839C839A
:100D20006091CF0170E080E090E00E945C0B20E0D9
:100D300030E040E753E40E94BB0A6B017C012AE0EB
:100D400037ED43EA5DE30E94B60A87FF05C01092C3
:100D5000DD011092DC0109C041E050E05093DD015B
:100D60004093DC0151E05093CE0120E030E040E0C0
:100D70005FE3C701B6010E94130C4B015C0120E048
:100D800030E040E05FE30E94B60A87FF45C0609113
:100D9000CD01669570E080E090E00E945E0B2B0133
:100DA0003C0120E030E04FE753E4C501B4010E946C
:100DB000130C9B01AC01C301B2010E94490A2B0133
:100DC0003C01A701960160E070E080E89FE30E948B
:100DD000490A9B01AC01C301B2010E94BB0A6B012D
:100DE0007C013B01582E4F2C20E030E04FE753E4CC
:100DF0000E940E0C181624F48FEF8093CC0118C0BB
:100E000020E030E0A901B601C7010E94B60A87FFC1
:100E100008C01092CC010CC0612C712C512C83E4C1
:100E2000482EB301852D942D0E942D0B6093CC018B
:100E30006091CB0170E080E090E00E945C0B20E0CC
:100E400030E04FE753E40E94BB0A29813A814B818D
:100E50005C810E94490A6B017C0120E030E040E89F
:100E60005FE30E940E0C18164CF420E030E040E8DE
:100E70005FE3C701B6010E94490A11C020E030E0DB
:100E8000A901C701B6010E94B60A87FF0AC020E087
:100E900030E040E85FE3C701B6010E944A0A6B01F7
:100EA0007C0120E030E040E05FE3C501B4010E9436
:100EB000130C69877A878B879C879B01AC01C701DC
:100EC000B6010E94490A69837A838B839C8320E060
:100ED00030E040E85FE30E940E0C18165CF420E05E
:100EE00030E040E85FE369817A818B819C810E94D8
:100EF000490A15C020E030E0A90169817A818B811F
:100F00009C810E94B60A87FF0EC020E030E040E8D6
:100F10005FE369817A818B819C810E944A0A69839F
:100F20007A838B839C8329813A814B815C812093D6
:100F3000C7013093C8014093C9015093CA01298564
:100F40003A854B855C85C701B6010E944A0A2B0190
:100F50003C0120E030E040E85FE30E940E0C1816F0
:100F60004CF420E030E040E85FE3C301B2010E94AE
:100F7000490A11C020E030E0A901C301B2010E947A
:100F8000B60A87FF0AC020E030E040E85FE3C30113
:100F9000B2010E944A0A2B013C014092C3015092C7
:100FA000C4016092C5017092C60120E030E040E0CB
:100FB0005FE3C701B6010E940E0C20E030E040E084
:100FC0005FE387FD05C0C701B6010E94490A04C05E
:100FD000C701B6010E944A0A6B017C0129853A8546
:100FE0004B855C850E94490A4B015C0120E030E0A2
:100FF00040E85FE30E940E0C18164CF420E030E04D
:1010000040E85FE3C501B4010E94490A11C020E035
:1010100030E0A901C501B4010E94B60A87FF0AC0E9
:1010200020E030E040E85FE3C501B4010E944A0AD5
:101030004B015C018092BF019092C001A092C1015E
:10104000B092C20129853A854B855C85C701B601FE
:101050000E944A0A6B017C0120E030E040E85FE337
:101060000E940E0C18164CF420E030E040E85FE3DC
:10107000C701B6010E94490A11C020E030E0A90171
:10108000C701B6010E94B60A87FF0AC020E030E01F
:1010900040E85FE3C701B6010E944A0A6B017C0188
:1010A000C092BB01D092BC01E092BD01F092BE01A2
:1010B00020E030E44CE156E469817A818B819C81A7
:1010C0000E94130C9B01AC016D817E818F819885FC
:1010D0000E94130C20E030E44CE156E40E94BB0A6D
:1010E0000E942D0B6093B7017093B8018093B901F2
:1010F0009093BA0120E030E44CE156E4C301B20120
:101100000E94130C9B01AC016D817E818F819885BB
:101110000E94130C20E030E44CE156E40E94BB0A2C
:101120000E942D0B6093B3017093B4018093B501BD
:101130009093B60120E030E44CE156E4C501B401DF
:101140000E94130C9B01AC016D817E818F8198857B
:101150000E94130C20E030E44CE156E40E94BB0AEC
:101160000E942D0B6093AF017093B0018093B10189
:101170009093B20120E030E44CE156E4C701B6019F
:101180000E94130C9B01AC016D817E818F8198853B
:101190000E94130C20E030E44CE156E40E94BB0AAC
:1011A0000E942D0B6093AB017093AC018093AD0155
:1011B0009093AE011092DE018091DE014091E70133
:1011C0005091E8016091E9017091EA01811120C01C
:1011D0008091A7019091A801A091A901B091AA01C5
:1011E000481759076A077B0799F08091E3019091AE
:1011F000E401A091E501B091E6018093D4019093C0
:10120000D501A093D601B093D70131E03093DE0130
:101210008091EF019091F001A091F101B091F20164
:10122000481759076A077B0708F5841B950BA60B1F
:10123000B70B81349D40A340B105C0F08091CE0131
:101240008823A1F01092CF011092CB011092CD0112
:101250006FEF70E083E00E948F0160E070E085E056
:101260000E948F013092DD012092DC018091DC012F
:101270009091DD0181309105E1F08230910509F412
:101280009DC0892B09F0A0C05A9AE090CD01E69448
:10129000F12C6FEF70E06E197F0983E00E948F01DF
:1012A00060E081E00E940701B70185E00E948F01A4
:1012B0008BC04091B3015091B4016091B501709120
:1012C000B601C090B701D090B801E090B901F0909C
:1012D000BA014C155D056E057F05A0F48090E30111
:1012E0009090E401A090E501B090E60181E04815FE
:1012F00059056A057B05F8F4C814D904EA04FB040F
:10130000D0F018C0C416D506E606F70698F480900B
:10131000E3019090E401A090E501B090E601C814CB
:10132000D904EA04FB0430F481E0481559056A0544
:101330007B0508F480E04091AB015091AC016091D5
:10134000AD017091AE01C090AF01D090B001E090BE
:10135000B101F090B2014C155D056E057F05A8F452
:101360008090E3019090E401A090E501B090E60147
:10137000481559056A057B0508F066C0C814D904EC
:10138000EA04FB0408F460C036C0C416D506E606BD
:10139000F70688F58090E3019090E401A090E501C4
:1013A000B090E601C814D904EA04FB0420F54815FE
:1013B00059056A057B0508F047C01DC05C980E946E
:1013C00013025C9A0E9413028091E7019091E80158
:1013D000A091E901B091EA018093A7019093A8013F
:1013E000A093A901B093AA010115110509F4F9CB45
:1013F0000E940000F6CB811117C05A9A882341F051
:101400006FEF70E083E00E948F0160E070E014C035
:10141000E090CC01F12C6FEF70E06E197F0983E052
:101420000E948F01B70108C05A986FEF70E083E007
:101430000E948F016FEF70E085E00E948F0160E0F5
:1014400081E00E940701C0CF882381F05A986FEF96
:1014500070E083E00E948F016FEF70E085E00E94F2
:101460008F0160E081E00E940701CACF81E0C5CF13
:10147000E2E2F1E01382128288EE93E0A0E0B0E0B5
:1014800084839583A683B78384E091E091838083EE
:1014900008955058BB27AA270E94610A0C94D40BC8
:1014A0000E94C60B38F00E94CD0B20F039F49F3F0C
:1014B00019F426F40C94C30B0EF4E095E7FB0C949E
:1014C000BD0BE92F0E94E50B58F3BA1762077307AB
:1014D0008407950720F079F4A6F50C94070C0EF418
:1014E000E0950B2EBA2FA02D0B01B90190010C0134
:1014F000CA01A0011124FF27591B99F0593F50F44C
:10150000503E68F11A16F040A22F232F342F4427A3
:10151000585FF3CF469537952795A795F04053959B
:10152000C9F77EF41F16BA0B620B730B840BBAF06B
:101530009150A1F0FF0FBB1F661F771F881FC2F7D6
:101540000EC0BA0F621F731F841F48F487957795EA
:101550006795B795F7959E3F08F0B0CF9395880FA4
:1015600008F09927EE0F9795879508950E94990B9B
:1015700008F481E008950E94CF0A0C94D40B0E94D5
:10158000CD0B58F00E94C60B40F029F45F3F29F0C4
:101590000C94BD0B51110C94080C0C94C30B0E94BD
:1015A000E50B68F39923B1F3552391F3951B550B84
:1015B000BB27AA2762177307840738F09F5F5F4F26
:1015C000220F331F441FAA1FA9F335D00E2E3AF065
:1015D000E0E832D091505040E695001CCAF72BD07D
:1015E000FE2F29D0660F771F881FBB1F26173707CE
:1015F0004807AB07B0E809F0BB0B802DBF01FF2700
:1016000093585F4F3AF09E3F510578F00C94BD0B14
:101610000C94080C5F3FE4F3983ED4F386957795DD
:101620006795B795F7959F5FC9F7880F911D9695B8
:10163000879597F90895E1E0660F771F881FBB1F14
:10164000621773078407BA0720F0621B730B840BC1
:10165000BA0BEE1F88F7E09508950E94ED0B88F015
:101660009F5798F0B92F9927B751B0F0E1F0660F66
:10167000771F881F991F1AF0BA95C9F714C0B130A7
:1016800091F00E94070CB1E008950C94070C672FAD
:10169000782F8827B85F39F0B93FCCF386957795D6
:1016A0006795B395D9F73EF49095809570956195BF
:1016B0007F4F8F4F9F4F0895E89409C097FB3EF4EA
:1016C00090958095709561957F4F8F4F9F4F99238F
:1016D000A9F0F92F96E9BB279395F695879577950D
:1016E0006795B795F111F8CFFAF4BB0F11F460FFCD
:1016F0001BC06F5F7F4F8F4F9F4F16C0882311F025
:1017000096E911C0772321F09EE8872F762F05C038
:10171000662371F096E8862F70E060E02AF09A95D3
:10172000660F771F881FDAF7880F9695879597F9C8
:101730000895990F0008550FAA0BE0E8FEEF161662
:101740001706E807F907C0F012161306E407F507B5
:1017500098F0621B730B840B950B39F40A2661F029
:10176000232B242B252B21F408950A2609F4A140CC
:10177000A6958FEF811D811D089597F99F6780E8D9
:1017800070E060E008959FEF80EC089500240A94D3
:101790001616170618060906089500240A9412164C
:1017A0001306140605060895092E0394000C11F47F
:1017B000882352F0BB0F40F4BF2B11F460FF04C02C
:1017C0006F5F7F4F8F4F9F4F089557FD9058440F85
:1017D000551F59F05F3F71F04795880F97FB991F90
:1017E00061F09F3F79F0879508951216130614064D
:1017F000551FF2CF4695F1DF08C0161617061806DA
:10180000991FF1CF86957105610508940895E894B4
:10181000BB2766277727CB0197F908950E94990B7C
:1018200008F48FEF08950E94260C0C94D40B0E94AC
:10183000C60B38F00E94CD0B20F0952311F00C94CC
:10184000BD0B0C94C30B11240C94080C0E94E50BE7
:1018500070F3959FC1F3950F50E0551F629FF00103
:10186000729FBB27F00DB11D639FAA27F00DB11D1C
:10187000AA1F649F6627B00DA11D661F829F2227A5
:10188000B00DA11D621F739FB00DA11D621F839F2C
:10189000A00D611D221F749F3327A00D611D231F02
:1018A000849F600D211D822F762F6A2F11249F5750
:1018B00050409AF0F1F088234AF0EE0FFF1FBB1F53
:1018C000661F771F881F91505040A9F79E3F510512
:1018D00080F00C94BD0B0C94080C5F3FE4F3983E31
:1018E000D4F3869577956795B795F795E7959F5FBC
:1018F000C1F7FE2B880F911D9695879597F908954E
:10190000EE0FFF1F0590F491E02D099481E090E027
:0A191000F8940C948B0CF894FFCFB0
:10191A00000000009F028B02B1027D028402810254
:02192A007E023B
:107E0000112484B714BE81FFF0D085E080938100F7
:107E100082E08093C00088E18093C10086E0809377
:107E2000C20080E18093C4008EE0C9D0259A86E02C
:107E300020E33CEF91E0309385002093840096BBD3
:107E4000B09BFECF1D9AA8958150A9F7CC24DD24C4
:107E500088248394B5E0AB2EA1E19A2EF3E0BF2EE7
:107E6000A2D0813461F49FD0082FAFD0023811F036
:107E7000013811F484E001C083E08DD089C08234E0
:107E800011F484E103C0853419F485E0A6D080C0E4
:107E9000853579F488D0E82EFF2485D0082F10E0AE
:107EA000102F00270E291F29000F111F8ED06801E7
:107EB0006FC0863521F484E090D080E0DECF843638
:107EC00009F040C070D06FD0082F6DD080E0C81688
:107ED00080E7D80618F4F601B7BEE895C0E0D1E017
:107EE00062D089930C17E1F7F0E0CF16F0E7DF06D8
:107EF00018F0F601B7BEE89568D007B600FCFDCFD4
:107F0000A601A0E0B1E02C9130E011968C91119780
:107F100090E0982F8827822B932B1296FA010C0160
:107F200087BEE89511244E5F5F4FF1E0A038BF0790
:107F300051F7F601A7BEE89507B600FCFDCF97BE46
:107F4000E89526C08437B1F42ED02DD0F82E2BD052
:107F50003CD0F601EF2C8F010F5F1F4F84911BD097
:107F6000EA94F801C1F70894C11CD11CFA94CF0C13
:107F7000D11C0EC0853739F428D08EE10CD085E9AC
:107F80000AD08FE07ACF813511F488E018D01DD067
:107F900080E101D065CF982F8091C00085FFFCCF94
:107FA0009093C60008958091C00087FFFCCF809118
:107FB000C00084FD01C0A8958091C6000895E0E648
:107FC000F0E098E1908380830895EDDF803219F02E
:107FD00088E0F5DFFFCF84E1DECF1F93182FE3DFCA
:107FE0001150E9F7F2DF1F91089580E0E8DFEE27F6
:047FF000FF270994CA
:027FFE00040479
:0400000300007E007B
:00000001FF
